:060000008031282C0000F5
:0800080083018031200077081C
:10001000A0007808A1007908A2007A08A3008B1E2E
:1000200013280B192A28850191308400801C1A2876
:1000300091182C28850191308400801E2128911A66
:100040002E282008F7002108F8002208F9002308CC
:10005000FA0009008031452880314C288031B128D0
:100060000B004F344B3400340B00453452345234BF
:100070004F34523400340B00413454342B344E345A
:1000800041344D3445343D340034A50A07080B1182
:10009000B0010B11803121282708043C031D85285D
:1000A000C80A4808053C031D5828C801C90A832806
:1000B00049080A3C031D8328C901AA08031D6A28B0
:1000C000AB08031D6A28AC08031D6A28A60101308D
:1000D000F8007D28AC0803196F28AC037B28AB031C
:1000E000031975283B30AC007B28AA0303197B2831
:1000F0003B30AB00AC000030F800F808031983284F
:1001000021009110200007089110911080312128C2
:100110002030850054308400000803199C280230E8
:10012000F800F701F70B9228F80B91289730F700A9
:10013000F70B9828800B8F28080021008C122030A4
:1001400022008C0664302100A400200088202100B9
:10015000A3080319AF288C1222008C122100200062
:100160000800950111303007F8002030FA0003181C
:10017000FA0A78082100A3007A08A4002000911E42
:10018000BF2823001908F80021002408850023084F
:1001900084007808800020002708023C0319D22838
:1001A0000130A7002708023C031D8B292F08023CC1
:1001B00003198A29AF080319DF280C30E02803301F
:1001C0002100A2002208200030020318E928B00A0A
:1001D0008A298B12210091122000B00120302100C9
:1001E000A4001130A300A501A601A701A801A9013F
:1001F000AA01AB012030AD005630AC00AF01B00118
:100200002D0885002C0884002F0884070030853DC8
:100210003008200030208000003803191429210004
:10022000B00AAF0A002920002100AE012E08013CCF
:10023000031C38292E082307F8000030243DFA005B
:10024000780884007A0885000008AF002E082C0783
:10025000F80000302D3DFA00780884007A08850007
:1002600000082F02031936290130A500AE0A16290D
:10027000A508031D3E290030F8007929AF01B0011F
:100280002D0885002C0884002F0884070030853D48
:100290003008200034208000003803195429210040
:1002A000B00AAF0A402920002100A501AE012E08A6
:1002B000043C031C77292E082307F8000030243D56
:1002C000FA00780884007A0885000008AF002E083C
:1002D0002C07F80000302D3DFA00780884007A08D9
:1002E000850000082F020319A50AAE0A5729250820
:1002F000F800F808031984290130A30020009D208C
:100300001430A5009F2921002000AF0AA50121007B
:10031000911620009E29270B9E2930080A3C031CB9
:100320009729B00A07080B1195018B169E298B128D
:10033000210091122000B0010130C700070891127E
:10034000803121283A302100990098011508C039E0
:10035000043895004830F800063820009C00FF3033
:100360009B008031392C22009D121D132400950121
:1003700021008C0122008C01803120003A2C2100C8
:100380008C1222008C162000A4018B1BA4178B1347
:10039000C8302100A40020008820A41B8B17210056
:1003A0008C1222008C122000080078080319DC2926
:1003B00077081A00F80BD8290800E6080319E6297F
:1003C00021000E1122000E15EA29200021000E1135
:1003D00022000E112000A4018B1BA4178B130530E3
:1003E0002100A40020008820A41B8B1708006B08A4
:1003F000111EF82923009A0020000800E90168086E
:1004000069020318122A6708FA006608E60A031947
:10041000E70A84007A0885000008EA00EB00F7216B
:10042000E90AFF290800203085001D308400F7010B
:100430000A30F800D5212030850011308400F70102
:100440000C30F800D521AF01B0010130E600DD210C
:100450004130BD005430BE000D30BF000A30C00036
:100460002030E7001D30E6000430E800FE21950151
:1004700007080B118B16AF08031D422A2508133CF1
:1004800003183B2AA4018B1BA4178B1301302100F6
:10049000A40020008820A41B8B17E601DD218031F9
:1004A000532C0B08F8008B13230055309600AA300C
:1004B000960095140000000095185C2A1511780824
:1004C0008B04200008003108A23C03196A2A01307D
:1004D000F800112CA901A8010130CA004A08093C02
:1004E000031C7F2A11304A0784002030850003183E
:1004F000850A0008A8070030A93DCA0A6E2A290803
:10050000CE00CF014E08F700FA0177083B02031D29
:100510008C2AFA0803198F2A0230F800112C2808B7
:10052000F700FA0177083C02031D992AFA0803191B
:100530009C2A0230F800112CCB012030CD00113064
:10054000CC000230CC070030CD3D3208903A031980
:10055000B32A013A0319B22B033A0319B42B013A17
:100560000319C42B052C0230A7004D08CF004C08FE
:10057000CE002030E4003030E300E601E7016408FB
:10058000850063088400660884070030853D67089D
:100590003B20800000380319D02AE70AE60ABF2A68
:1005A0006408E7006308E6004F08E9004E08E80029
:1005B0006708EB006608EA006B08FA006A08840026
:1005C0007A08850080080319E92AEA0A0319EB0A68
:1005D000DC2A6908FA00680884007A088500800827
:1005E0000319052B68088400690885000008EE00DF
:1005F0006B0885006A0884006E088000EA0A031907
:10060000EB0AE80A0319E90AE92A6A0884006B0878
:10061000850080016608F8006708F900E2010D30E6
:10062000E0000A30E1000230E5004F08FA004E0811
:1006300084007A0885000008E6006508E70066087F
:10064000E8006708E9001030EA006A082300920019
:1006500020006908230091008501200068088400BB
:100660000130EB002300951611081F390319482BA0
:10067000F9001108E039910015140000000015156B
:10068000200051222300910A0319920AF90B3C2BF6
:1006900020006B08F9000310F90C000823009300F8
:1006A000840A00089400840A11081F391F3C031DA6
:1006B0005F2B1516151595122000512223001515D4
:1006C0002000512223009516910A0319920AF90B72
:1006D0006A2B6C2B20004D2B11081F390319892B15
:1006E000203CF90015140000000011081F391F3CC0
:1006F000031D802B1516151595122000512223007D
:100700001515200051222300910A0319920AF90BB2
:10071000722B2000E50A4F08FA004E08CE0A031992
:10072000CF0A7A04031D152B0130E600DD21640891
:10073000E7006308E6001230E800FE210130AF0058
:10074000A501950107080B118B162F0BAB2B250864
:10075000133C0318A52BE601DD212508F8007808D5
:10076000CB00072CBF21072C33080F3C031DBB2BEC
:100770000130A600C32B3308F03C031DC12BA6019A
:10078000C32B0330CB00072C4D08CF004C08CE0004
:100790004F08FA004E0884007A0885000008F03CF3
:1007A0000319D52B0330F800022C203085000A30C5
:1007B0008400F7010330F800D521CE0A0319CF0ACF
:1007C0004E0884004F0885000008AA00CE0A0319CD
:1007D000CF0A4E0884004F0885000008AB00CE0AFF
:1007E0000319CF0A4E0884004F0885000008AC00AA
:1007F0000430A7009A0107089110210091140030DD
:10080000F80020007808CB00072C0330CB00203004
:10081000850011308400F7010C30F800D5214B0819
:10082000F8008031842CCA080319192CF130BD005E
:100830001B2C5D30BD003D08EB00F721203085000A
:100840001D308400F7010A30F800D5218031892C51
:10085000383021009900980123009F110C309B0033
:10086000A2309E0090309D008E012000AD01AE01AF
:10087000A229B32995018B12A501C0308B04023047
:10088000A700C701BF21A4018B1BA4178B130A303B
:100890002100A40020008820A41B8B17070821003A
:1008A00091162000132AA5080319562C0130A70021
:1008B000A601C801C90121008E1520008E19722CD5
:1008C000A4018B1BA4178B130A302100A400200065
:1008D0008820A41B8B1721008E1520008E1D6B2CE9
:1008E0000130A606471C8E2CA5080319822CA401F2
:1008F0008B1BA4178B132100A30120009D20A41B98
:100900008B17892CBF21632A7808C7004708CA00C3
:10091000132CA501C70121009116200000302200F0
:100920000C1A0130200026020319A62CA608031D6C
:100930009F2C21000C1222000C12A32C200021005D
:100940000C1222000C1601302000A7002708083CDA
:0E095000031DAD2C63000130A7005B2C63007B
:020000040001F9
:04000E00E419CF1C06
:00000001FF
;PIC16LF1454
;CRC=E346  
;Extension2 v1.0 2014-12-31 14:31 
